:100000000C942A000C9434000C9434000C943400AA
:100010000C9434000C9434000C9434000C94340090
:100020000C9434000C9434000C9434000C94340080
:100030000C9434000C9434000C9434000C94340070
:100040000C9434000C9434000C9434000C94340060
:100050000C94340011241FBECFE5D8E0DEBFCDBF25
:100060000E94BD000C94CB000C9400008FEF87BB66
:1000700018BA089580EF84BB8FE085BB089583B3E1
:100080008F7090E00895EF92FF920F931F93CF939C
:10009000DF93C4E0D0E0E12CF12C00E010E054C08C
:1000A00081E090E00C2E02C0880F991F0A94E2F7BD
:1000B000809585BB89EF90E00197F1F700C00000C3
:1000C0000E943F00E9EFF0E03197F1F700C0000037
:1000D0008B309105F9F024F48730910529F12EC079
:1000E0008D30910569F08E30910541F50F5F1F4FFE
:1000F0000230110584F57E01F3E0EF1AF10823C008
:100100000F5F1F4F023011054CF57E012FEFE21AF1
:10011000F20A19C00F5F1F4F0230110514F57E015E
:1001200085E0E80EF11C0FC00F5F1F4F0230110574
:10013000DCF47E0199E0E90EF11C05C00F9719F07F
:10014000EE24EA94F12C2196C830D1050CF4A8CF06
:100150008E2D9F2D0BC08FEF90E008C08FEF90E0A9
:1001600005C08FEF90E002C08FEF90E0DF91CF915C
:100170001F910F91FF90EF9008950E9436000E940A
:100180003A000E9443008BBB83EF91E00197F1F7A7
:0A01900000C00000F6CFF894FFCF86
:00000001FF
