S00E00006C6162332D342E7372656353
S11300000C942A000C9447000C9447000C9447006D
S11300100C9447000C9447000C9447000C94470040
S11300200C9447000C9447000C9447000C94470030
S11300300C9447000C9447000C9447000C94470020
S11300400C9447000C9447000C9447000C94470010
S11300500C94470011241FBECFE5D8E0DEBFCDBF0E
S113006010E0A0E6B0E0E8E3F2E002C005900D92F3
S1130070AE36B107D9F720E0AEE6B0E001C01D927C
S1130080AF36B207E1F70E94F1000C941A010C9408
S113009000009BB392609BBB9BB3282F207F9F7073
S11300A0922B9BBB9BB39D7F9BBB00009BB3926039
S11300B09BBB20E1829FC00111249BB39F70892BBD
S11300C08BBB8BB38D7F8BBB80E18A95F1F700C02E
S11300D008958BB38E7F8BBB81E00E9449008BB364
S11300E081608BBB87E99AE30197F1F700C00000B8
S11300F008958FEF8ABB1BBA8BB38E7F8BBB88E2CC
S11301000E9449008BB381608BBB8BB381608BBB36
S113011086E00E9449008BB381608BBB8BB38E7FDA
S11301208BBB8CE00E9449008BB381608BBB0E9427
S11301306900089580936E009BB39E7F9BBB90E4FF
S1130140899F600D1124862F80680E9449008BB31B
S113015081608BBB81EE94E00197F1F700C0000051
S113016008950F931F93CF93DF938C01D62FC0E094
S11301700FC0C03121F460E081E00E949A00F801D0
S1130180EC0FF11DC7FDFA9580810E944900CF5FF5
S1130190CD177CF3DF91CF911F910F9108951F9399
S11301A0CF93DF93EC01162F60E080E00E949A0069
S11301B0612FCE010E94B100DF91CF911F9108956C
S11301C01F93CF93DF93EC01162F60E081E00E9430
S11301D09A00612FCE010E94B100DF91CF911F914F
S11301E00895CF93DF93CDB7DEB72D970FB6F8946C
S11301F0DEBF0FBECDBF86E0E0E6F0E0DE01119683
S113020001900D928A95E1F787E0E6E6F0E0DE01E1
S1130210179601900D928A95E1F70E94790066E0A5
S1130220CE0101960E94CF0067E0CE0107960E949E
S10B0230E000FFCFF894FFCFBA
S11102386255624C694E6A456348614E65002A
S9030000FC
